:1000000000308A003C2800000A108A100A1182077A
:100010003F3406345B344F3466346D347D340734FA
:100020007F346F342408F801230203181A282308A8
:10003000F7002628F7010830A500A30DF70D2408C6
:1000400077020318F700F80DA50B1D2808002330D0
:1000500084008313000803193B280130F800F701DE
:10006000F70B3028F80B2F284A30F700F70B36280B
:100070003928800B2D2808000230A0003C30A10058
:100080006430A20083161F149F141F159F110730A0
:100090009C0083131F3083050912831290010030E6
:1000A000F80092000030831692001F149F141F1551
:1000B0009F1183121F10F03097059D053030831675
:1000C00085000030860030308312850086010510DF
:1000D000851005118515A20305142108A3000A3017
:1000E000A400122077080420A30086000430A30097
:1000F0002720051085142108A3000A30A40012202F
:1001000078080420A30086000330A3002720851070
:10011000051520080420A30086000330A300272033
:100120000511A208031D97286330A200A103A108AE
:10013000031DA6283B30A100A008031DA528051417
:10014000851405153F3086008511A003051ED928AA
:100150000A30A3002720A0033B30A100A008031908
:10016000A001051ED92805142108A3000A30A40007
:10017000122077080420A30086000130A300272066
:10018000051085142108A3000A30A4001220780865
:100190000420A30086000130A30027208510051548
:1001A00020080420A30086000130A30027200511A9
:1001B000B128851E0F290A30A3002720A00A3B3052
:1001C000A1002008093C0318E7280930A000851E7B
:1001D0000F2905142108A3000A30A4001220770873
:1001E0000420A30086000130A300272005108514F9
:1001F0002108A3000A30A400122078080420A300DC
:1002000086000130A3002720851005152008042052
:10021000A30086000130A30027200511E7286B28E2
:02022000630079
:02400E00393F38
:00000001FF
;PIC16F877A
;CRC=B145  CREATED="24-Tem-17 14:03"
